{
  "_format": "hh-sol-artifact-1",
  "contractName": "ProofOfTimeNFT",
  "sourceName": "contracts/VideoNFT.sol",
  "abi": [
    {
      "inputs": [
        {
          "internalType": "string",
          "name": "name",
          "type": "string"
        },
        {
          "internalType": "string",
          "name": "symbol",
          "type": "string"
        }
      ],
      "stateMutability": "nonpayable",
      "type": "constructor"
    },
    {
      "inputs": [
        {
          "internalType": "address",
          "name": "sender",
          "type": "address"
        },
        {
          "internalType": "uint256",
          "name": "tokenId",
          "type": "uint256"
        },
        {
          "internalType": "address",
          "name": "owner",
          "type": "address"
        }
      ],
      "name": "ERC721IncorrectOwner",
      "type": "error"
    },
    {
      "inputs": [
        {
          "internalType": "address",
          "name": "operator",
          "type": "address"
        },
        {
          "internalType": "uint256",
          "name": "tokenId",
          "type": "uint256"
        }
      ],
      "name": "ERC721InsufficientApproval",
      "type": "error"
    },
    {
      "inputs": [
        {
          "internalType": "address",
          "name": "approver",
          "type": "address"
        }
      ],
      "name": "ERC721InvalidApprover",
      "type": "error"
    },
    {
      "inputs": [
        {
          "internalType": "address",
          "name": "operator",
          "type": "address"
        }
      ],
      "name": "ERC721InvalidOperator",
      "type": "error"
    },
    {
      "inputs": [
        {
          "internalType": "address",
          "name": "owner",
          "type": "address"
        }
      ],
      "name": "ERC721InvalidOwner",
      "type": "error"
    },
    {
      "inputs": [
        {
          "internalType": "address",
          "name": "receiver",
          "type": "address"
        }
      ],
      "name": "ERC721InvalidReceiver",
      "type": "error"
    },
    {
      "inputs": [
        {
          "internalType": "address",
          "name": "sender",
          "type": "address"
        }
      ],
      "name": "ERC721InvalidSender",
      "type": "error"
    },
    {
      "inputs": [
        {
          "internalType": "uint256",
          "name": "tokenId",
          "type": "uint256"
        }
      ],
      "name": "ERC721NonexistentToken",
      "type": "error"
    },
    {
      "inputs": [
        {
          "internalType": "address",
          "name": "owner",
          "type": "address"
        }
      ],
      "name": "OwnableInvalidOwner",
      "type": "error"
    },
    {
      "inputs": [
        {
          "internalType": "address",
          "name": "account",
          "type": "address"
        }
      ],
      "name": "OwnableUnauthorizedAccount",
      "type": "error"
    },
    {
      "anonymous": false,
      "inputs": [
        {
          "indexed": true,
          "internalType": "address",
          "name": "owner",
          "type": "address"
        },
        {
          "indexed": true,
          "internalType": "address",
          "name": "approved",
          "type": "address"
        },
        {
          "indexed": true,
          "internalType": "uint256",
          "name": "tokenId",
          "type": "uint256"
        }
      ],
      "name": "Approval",
      "type": "event"
    },
    {
      "anonymous": false,
      "inputs": [
        {
          "indexed": true,
          "internalType": "address",
          "name": "owner",
          "type": "address"
        },
        {
          "indexed": true,
          "internalType": "address",
          "name": "operator",
          "type": "address"
        },
        {
          "indexed": false,
          "internalType": "bool",
          "name": "approved",
          "type": "bool"
        }
      ],
      "name": "ApprovalForAll",
      "type": "event"
    },
    {
      "anonymous": false,
      "inputs": [
        {
          "indexed": false,
          "internalType": "uint256",
          "name": "optionId",
          "type": "uint256"
        },
        {
          "indexed": false,
          "internalType": "uint256",
          "name": "nftId",
          "type": "uint256"
        },
        {
          "indexed": false,
          "internalType": "uint256",
          "name": "strikePrice",
          "type": "uint256"
        },
        {
          "indexed": false,
          "internalType": "uint256",
          "name": "expiration",
          "type": "uint256"
        },
        {
          "indexed": false,
          "internalType": "bool",
          "name": "isCallOption",
          "type": "bool"
        }
      ],
      "name": "OptionCreated",
      "type": "event"
    },
    {
      "anonymous": false,
      "inputs": [
        {
          "indexed": false,
          "internalType": "uint256",
          "name": "optionId",
          "type": "uint256"
        },
        {
          "indexed": false,
          "internalType": "address",
          "name": "buyer",
          "type": "address"
        }
      ],
      "name": "OptionExercised",
      "type": "event"
    },
    {
      "anonymous": false,
      "inputs": [
        {
          "indexed": true,
          "internalType": "address",
          "name": "previousOwner",
          "type": "address"
        },
        {
          "indexed": true,
          "internalType": "address",
          "name": "newOwner",
          "type": "address"
        }
      ],
      "name": "OwnershipTransferred",
      "type": "event"
    },
    {
      "anonymous": false,
      "inputs": [
        {
          "indexed": true,
          "internalType": "address",
          "name": "from",
          "type": "address"
        },
        {
          "indexed": true,
          "internalType": "address",
          "name": "to",
          "type": "address"
        },
        {
          "indexed": true,
          "internalType": "uint256",
          "name": "tokenId",
          "type": "uint256"
        }
      ],
      "name": "Transfer",
      "type": "event"
    },
    {
      "anonymous": false,
      "inputs": [
        {
          "indexed": false,
          "internalType": "uint256",
          "name": "tokenId",
          "type": "uint256"
        },
        {
          "indexed": false,
          "internalType": "string",
          "name": "url",
          "type": "string"
        },
        {
          "indexed": false,
          "internalType": "uint256",
          "name": "length",
          "type": "uint256"
        }
      ],
      "name": "VideoUploaded",
      "type": "event"
    },
    {
      "inputs": [
        {
          "internalType": "address",
          "name": "to",
          "type": "address"
        },
        {
          "internalType": "uint256",
          "name": "tokenId",
          "type": "uint256"
        }
      ],
      "name": "approve",
      "outputs": [],
      "stateMutability": "nonpayable",
      "type": "function"
    },
    {
      "inputs": [
        {
          "internalType": "address",
          "name": "owner",
          "type": "address"
        }
      ],
      "name": "balanceOf",
      "outputs": [
        {
          "internalType": "uint256",
          "name": "",
          "type": "uint256"
        }
      ],
      "stateMutability": "view",
      "type": "function"
    },
    {
      "inputs": [
        {
          "internalType": "uint256",
          "name": "nftId",
          "type": "uint256"
        },
        {
          "internalType": "uint256",
          "name": "strikePrice",
          "type": "uint256"
        },
        {
          "internalType": "uint256",
          "name": "expiration",
          "type": "uint256"
        },
        {
          "internalType": "bool",
          "name": "isCallOption",
          "type": "bool"
        }
      ],
      "name": "createOption",
      "outputs": [],
      "stateMutability": "nonpayable",
      "type": "function"
    },
    {
      "inputs": [
        {
          "internalType": "uint256",
          "name": "optionId",
          "type": "uint256"
        }
      ],
      "name": "exerciseOption",
      "outputs": [],
      "stateMutability": "payable",
      "type": "function"
    },
    {
      "inputs": [
        {
          "internalType": "uint256",
          "name": "tokenId",
          "type": "uint256"
        }
      ],
      "name": "getApproved",
      "outputs": [
        {
          "internalType": "address",
          "name": "",
          "type": "address"
        }
      ],
      "stateMutability": "view",
      "type": "function"
    },
    {
      "inputs": [
        {
          "internalType": "address",
          "name": "owner",
          "type": "address"
        },
        {
          "internalType": "address",
          "name": "operator",
          "type": "address"
        }
      ],
      "name": "isApprovedForAll",
      "outputs": [
        {
          "internalType": "bool",
          "name": "",
          "type": "bool"
        }
      ],
      "stateMutability": "view",
      "type": "function"
    },
    {
      "inputs": [],
      "name": "name",
      "outputs": [
        {
          "internalType": "string",
          "name": "",
          "type": "string"
        }
      ],
      "stateMutability": "view",
      "type": "function"
    },
    {
      "inputs": [
        {
          "internalType": "uint256",
          "name": "",
          "type": "uint256"
        }
      ],
      "name": "options",
      "outputs": [
        {
          "internalType": "address",
          "name": "seller",
          "type": "address"
        },
        {
          "internalType": "uint256",
          "name": "nftId",
          "type": "uint256"
        },
        {
          "internalType": "uint256",
          "name": "strikePrice",
          "type": "uint256"
        },
        {
          "internalType": "uint256",
          "name": "expiration",
          "type": "uint256"
        },
        {
          "internalType": "bool",
          "name": "isCallOption",
          "type": "bool"
        }
      ],
      "stateMutability": "view",
      "type": "function"
    },
    {
      "inputs": [],
      "name": "owner",
      "outputs": [
        {
          "internalType": "address",
          "name": "",
          "type": "address"
        }
      ],
      "stateMutability": "view",
      "type": "function"
    },
    {
      "inputs": [
        {
          "internalType": "uint256",
          "name": "tokenId",
          "type": "uint256"
        }
      ],
      "name": "ownerOf",
      "outputs": [
        {
          "internalType": "address",
          "name": "",
          "type": "address"
        }
      ],
      "stateMutability": "view",
      "type": "function"
    },
    {
      "inputs": [],
      "name": "renounceOwnership",
      "outputs": [],
      "stateMutability": "nonpayable",
      "type": "function"
    },
    {
      "inputs": [
        {
          "internalType": "address",
          "name": "from",
          "type": "address"
        },
        {
          "internalType": "address",
          "name": "to",
          "type": "address"
        },
        {
          "internalType": "uint256",
          "name": "tokenId",
          "type": "uint256"
        }
      ],
      "name": "safeTransferFrom",
      "outputs": [],
      "stateMutability": "nonpayable",
      "type": "function"
    },
    {
      "inputs": [
        {
          "internalType": "address",
          "name": "from",
          "type": "address"
        },
        {
          "internalType": "address",
          "name": "to",
          "type": "address"
        },
        {
          "internalType": "uint256",
          "name": "tokenId",
          "type": "uint256"
        },
        {
          "internalType": "bytes",
          "name": "data",
          "type": "bytes"
        }
      ],
      "name": "safeTransferFrom",
      "outputs": [],
      "stateMutability": "nonpayable",
      "type": "function"
    },
    {
      "inputs": [
        {
          "internalType": "address",
          "name": "operator",
          "type": "address"
        },
        {
          "internalType": "bool",
          "name": "approved",
          "type": "bool"
        }
      ],
      "name": "setApprovalForAll",
      "outputs": [],
      "stateMutability": "nonpayable",
      "type": "function"
    },
    {
      "inputs": [
        {
          "internalType": "bytes4",
          "name": "interfaceId",
          "type": "bytes4"
        }
      ],
      "name": "supportsInterface",
      "outputs": [
        {
          "internalType": "bool",
          "name": "",
          "type": "bool"
        }
      ],
      "stateMutability": "view",
      "type": "function"
    },
    {
      "inputs": [],
      "name": "symbol",
      "outputs": [
        {
          "internalType": "string",
          "name": "",
          "type": "string"
        }
      ],
      "stateMutability": "view",
      "type": "function"
    },
    {
      "inputs": [
        {
          "internalType": "uint256",
          "name": "tokenId",
          "type": "uint256"
        }
      ],
      "name": "tokenURI",
      "outputs": [
        {
          "internalType": "string",
          "name": "",
          "type": "string"
        }
      ],
      "stateMutability": "view",
      "type": "function"
    },
    {
      "inputs": [
        {
          "internalType": "address",
          "name": "from",
          "type": "address"
        },
        {
          "internalType": "address",
          "name": "to",
          "type": "address"
        },
        {
          "internalType": "uint256",
          "name": "tokenId",
          "type": "uint256"
        }
      ],
      "name": "transferFrom",
      "outputs": [],
      "stateMutability": "nonpayable",
      "type": "function"
    },
    {
      "inputs": [
        {
          "internalType": "address",
          "name": "newOwner",
          "type": "address"
        }
      ],
      "name": "transferOwnership",
      "outputs": [],
      "stateMutability": "nonpayable",
      "type": "function"
    },
    {
      "inputs": [
        {
          "internalType": "string",
          "name": "videoUrl",
          "type": "string"
        },
        {
          "internalType": "uint256",
          "name": "videoLength",
          "type": "uint256"
        }
      ],
      "name": "uploadAndMintNFT",
      "outputs": [],
      "stateMutability": "nonpayable",
      "type": "function"
    },
    {
      "inputs": [
        {
          "internalType": "uint256",
          "name": "",
          "type": "uint256"
        }
      ],
      "name": "videos",
      "outputs": [
        {
          "internalType": "string",
          "name": "url",
          "type": "string"
        },
        {
          "internalType": "uint256",
          "name": "length",
          "type": "uint256"
        },
        {
          "internalType": "bool",
          "name": "uploaded",
          "type": "bool"
        }
      ],
      "stateMutability": "view",
      "type": "function"
    }
  ],
  "bytecode": "0x60806040523480156200001157600080fd5b5060405162003aa738038062003aa7833981810160405281019062000037919062000348565b33828281600090816200004b919062000618565b5080600190816200005d919062000618565b505050600073ffffffffffffffffffffffffffffffffffffffff168173ffffffffffffffffffffffffffffffffffffffff1603620000d55760006040517f1e4fbdf7000000000000000000000000000000000000000000000000000000008152600401620000cc919062000744565b60405180910390fd5b620000e681620000ef60201b60201c565b50505062000761565b6000600660009054906101000a900473ffffffffffffffffffffffffffffffffffffffff16905081600660006101000a81548173ffffffffffffffffffffffffffffffffffffffff021916908373ffffffffffffffffffffffffffffffffffffffff1602179055508173ffffffffffffffffffffffffffffffffffffffff168173ffffffffffffffffffffffffffffffffffffffff167f8be0079c531659141344cd1fd0a4f28419497f9722a3daafe3b4186f6b6457e060405160405180910390a35050565b6000604051905090565b600080fd5b600080fd5b600080fd5b600080fd5b6000601f19601f8301169050919050565b7f4e487b7100000000000000000000000000000000000000000000000000000000600052604160045260246000fd5b6200021e82620001d3565b810181811067ffffffffffffffff8211171562000240576200023f620001e4565b5b80604052505050565b600062000255620001b5565b905062000263828262000213565b919050565b600067ffffffffffffffff821115620002865762000285620001e4565b5b6200029182620001d3565b9050602081019050919050565b60005b83811015620002be578082015181840152602081019050620002a1565b60008484015250505050565b6000620002e1620002db8462000268565b62000249565b9050828152602081018484840111156200030057620002ff620001ce565b5b6200030d8482856200029e565b509392505050565b600082601f8301126200032d576200032c620001c9565b5b81516200033f848260208601620002ca565b91505092915050565b60008060408385031215620003625762000361620001bf565b5b600083015167ffffffffffffffff811115620003835762000382620001c4565b5b620003918582860162000315565b925050602083015167ffffffffffffffff811115620003b557620003b4620001c4565b5b620003c38582860162000315565b9150509250929050565b600081519050919050565b7f4e487b7100000000000000000000000000000000000000000000000000000000600052602260045260246000fd5b600060028204905060018216806200042057607f821691505b602082108103620004365762000435620003d8565b5b50919050565b60008190508160005260206000209050919050565b60006020601f8301049050919050565b600082821b905092915050565b600060088302620004a07fffffffffffffffffffffffffffffffffffffffffffffffffffffffffffffffff8262000461565b620004ac868362000461565b95508019841693508086168417925050509392505050565b6000819050919050565b6000819050919050565b6000620004f9620004f3620004ed84620004c4565b620004ce565b620004c4565b9050919050565b6000819050919050565b6200051583620004d8565b6200052d620005248262000500565b8484546200046e565b825550505050565b600090565b6200054462000535565b620005518184846200050a565b505050565b5b8181101562000579576200056d6000826200053a565b60018101905062000557565b5050565b601f821115620005c85762000592816200043c565b6200059d8462000451565b81016020851015620005ad578190505b620005c5620005bc8562000451565b83018262000556565b50505b505050565b600082821c905092915050565b6000620005ed60001984600802620005cd565b1980831691505092915050565b6000620006088383620005da565b9150826002028217905092915050565b6200062382620003cd565b67ffffffffffffffff8111156200063f576200063e620001e4565b5b6200064b825462000407565b620006588282856200057d565b600060209050601f8311600181146200069057600084156200067b578287015190505b620006878582620005fa565b865550620006f7565b601f198416620006a0866200043c565b60005b82811015620006ca57848901518255600182019150602085019450602081019050620006a3565b86831015620006ea5784890151620006e6601f891682620005da565b8355505b6001600288020188555050505b505050505050565b600073ffffffffffffffffffffffffffffffffffffffff82169050919050565b60006200072c82620006ff565b9050919050565b6200073e816200071f565b82525050565b60006020820190506200075b600083018462000733565b92915050565b61333680620007716000396000f3fe60806040526004361061012a5760003560e01c8063715018a6116100ab578063c87b56dd1161006f578063c87b56dd146103f2578063e6821bf51461042f578063e985e9c51461046e578063f2fde38b146104ab578063f52f2526146104d4578063f9c95a66146104f05761012a565b8063715018a6146103335780638da5cb5b1461034a57806395d89b4114610375578063a22cb465146103a0578063b88d4fde146103c95761012a565b8063370ad217116100f2578063370ad21714610226578063409e22051461024f57806342842e0e146102905780636352211e146102b957806370a08231146102f65761012a565b806301ffc9a71461012f57806306fdde031461016c578063081812fc14610197578063095ea7b3146101d457806323b872dd146101fd575b600080fd5b34801561013b57600080fd5b5061015660048036038101906101519190612296565b610519565b60405161016391906122de565b60405180910390f35b34801561017857600080fd5b506101816105fb565b60405161018e9190612389565b60405180910390f35b3480156101a357600080fd5b506101be60048036038101906101b991906123e1565b61068d565b6040516101cb919061244f565b60405180910390f35b3480156101e057600080fd5b506101fb60048036038101906101f69190612496565b6106a9565b005b34801561020957600080fd5b50610224600480360381019061021f91906124d6565b6106bf565b005b34801561023257600080fd5b5061024d6004803603810190610248919061265e565b6107c1565b005b34801561025b57600080fd5b50610276600480360381019061027191906123e1565b6108e2565b6040516102879594939291906126c9565b60405180910390f35b34801561029c57600080fd5b506102b760048036038101906102b291906124d6565b610945565b005b3480156102c557600080fd5b506102e060048036038101906102db91906123e1565b610965565b6040516102ed919061244f565b60405180910390f35b34801561030257600080fd5b5061031d6004803603810190610318919061271c565b610977565b60405161032a9190612749565b60405180910390f35b34801561033f57600080fd5b50610348610a31565b005b34801561035657600080fd5b5061035f610a45565b60405161036c919061244f565b60405180910390f35b34801561038157600080fd5b5061038a610a6f565b6040516103979190612389565b60405180910390f35b3480156103ac57600080fd5b506103c760048036038101906103c29190612790565b610b01565b005b3480156103d557600080fd5b506103f060048036038101906103eb9190612871565b610b17565b005b3480156103fe57600080fd5b50610419600480360381019061041491906123e1565b610b3c565b6040516104269190612389565b60405180910390f35b34801561043b57600080fd5b50610456600480360381019061045191906123e1565b610ba5565b604051610465939291906128f4565b60405180910390f35b34801561047a57600080fd5b5061049560048036038101906104909190612932565b610c64565b6040516104a291906122de565b60405180910390f35b3480156104b757600080fd5b506104d260048036038101906104cd919061271c565b610cf8565b005b6104ee60048036038101906104e991906123e1565b610d7e565b005b3480156104fc57600080fd5b5061051760048036038101906105129190612972565b61103e565b005b60007f80ac58cd000000000000000000000000000000000000000000000000000000007bffffffffffffffffffffffffffffffffffffffffffffffffffffffff1916827bffffffffffffffffffffffffffffffffffffffffffffffffffffffff191614806105e457507f5b5e139f000000000000000000000000000000000000000000000000000000007bffffffffffffffffffffffffffffffffffffffffffffffffffffffff1916827bffffffffffffffffffffffffffffffffffffffffffffffffffffffff1916145b806105f457506105f382611235565b5b9050919050565b60606000805461060a90612a08565b80601f016020809104026020016040519081016040528092919081815260200182805461063690612a08565b80156106835780601f1061065857610100808354040283529160200191610683565b820191906000526020600020905b81548152906001019060200180831161066657829003601f168201915b5050505050905090565b60006106988261129f565b506106a282611327565b9050919050565b6106bb82826106b6611364565b61136c565b5050565b600073ffffffffffffffffffffffffffffffffffffffff168273ffffffffffffffffffffffffffffffffffffffff16036107315760006040517f64a0ae92000000000000000000000000000000000000000000000000000000008152600401610728919061244f565b60405180910390fd5b60006107458383610740611364565b61137e565b90508373ffffffffffffffffffffffffffffffffffffffff168173ffffffffffffffffffffffffffffffffffffffff16146107bb578382826040517f64283d7b0000000000000000000000000000000000000000000000000000000081526004016107b293929190612a39565b60405180910390fd5b50505050565b6078811015610805576040517f08c379a00000000000000000000000000000000000000000000000000000000081526004016107fc90612ae2565b60405180910390fd5b6007600081548092919061081890612b31565b91905055506000600754905060405180606001604052808481526020018381526020016001151581525060086000838152602001908152602001600020600082015181600001908161086a9190612d25565b506020820151816001015560408201518160020160006101000a81548160ff0219169083151502179055509050506108a23382611598565b7f349c5f77e56e5887d4ed27134a3b8299d8312c360d59a917ab436dab02d7aa888184846040516108d593929190612df7565b60405180910390a1505050565b60096020528060005260406000206000915090508060000160009054906101000a900473ffffffffffffffffffffffffffffffffffffffff16908060010154908060020154908060030154908060040160009054906101000a900460ff16905085565b61096083838360405180602001604052806000815250610b17565b505050565b60006109708261129f565b9050919050565b60008073ffffffffffffffffffffffffffffffffffffffff168273ffffffffffffffffffffffffffffffffffffffff16036109ea5760006040517f89c62b640000000000000000000000000000000000000000000000000000000081526004016109e1919061244f565b60405180910390fd5b600360008373ffffffffffffffffffffffffffffffffffffffff1673ffffffffffffffffffffffffffffffffffffffff168152602001908152602001600020549050919050565b610a39611691565b610a436000611718565b565b6000600660009054906101000a900473ffffffffffffffffffffffffffffffffffffffff16905090565b606060018054610a7e90612a08565b80601f0160208091040260200160405190810160405280929190818152602001828054610aaa90612a08565b8015610af75780601f10610acc57610100808354040283529160200191610af7565b820191906000526020600020905b815481529060010190602001808311610ada57829003601f168201915b5050505050905090565b610b13610b0c611364565b83836117de565b5050565b610b228484846106bf565b610b36610b2d611364565b8585858561194d565b50505050565b6060610b478261129f565b506000610b52611afe565b90506000815111610b725760405180602001604052806000815250610b9d565b80610b7c84611b15565b604051602001610b8d929190612e71565b6040516020818303038152906040525b915050919050565b6008602052806000526040600020600091509050806000018054610bc890612a08565b80601f0160208091040260200160405190810160405280929190818152602001828054610bf490612a08565b8015610c415780601f10610c1657610100808354040283529160200191610c41565b820191906000526020600020905b815481529060010190602001808311610c2457829003601f168201915b5050505050908060010154908060020160009054906101000a900460ff16905083565b6000600560008473ffffffffffffffffffffffffffffffffffffffff1673ffffffffffffffffffffffffffffffffffffffff16815260200190815260200160002060008373ffffffffffffffffffffffffffffffffffffffff1673ffffffffffffffffffffffffffffffffffffffff16815260200190815260200160002060009054906101000a900460ff16905092915050565b610d00611691565b600073ffffffffffffffffffffffffffffffffffffffff168173ffffffffffffffffffffffffffffffffffffffff1603610d725760006040517f1e4fbdf7000000000000000000000000000000000000000000000000000000008152600401610d69919061244f565b60405180910390fd5b610d7b81611718565b50565b6000600960008381526020019081526020016000206040518060a00160405290816000820160009054906101000a900473ffffffffffffffffffffffffffffffffffffffff1673ffffffffffffffffffffffffffffffffffffffff1673ffffffffffffffffffffffffffffffffffffffff1681526020016001820154815260200160028201548152602001600382015481526020016004820160009054906101000a900460ff161515151581525050905042816060015111610e75576040517f08c379a0000000000000000000000000000000000000000000000000000000008152600401610e6c90612ee1565b60405180910390fd5b806080015115610f285780604001513414610ec5576040517f08c379a0000000000000000000000000000000000000000000000000000000008152600401610ebc90612f73565b60405180910390fd5b610ed88160000151338360200151611be3565b806000015173ffffffffffffffffffffffffffffffffffffffff166108fc349081150290604051600060405180830381858888f19350505050158015610f22573d6000803e3d6000fd5b50611001565b3373ffffffffffffffffffffffffffffffffffffffff16610f4c8260200151610965565b73ffffffffffffffffffffffffffffffffffffffff1614610fa2576040517f08c379a0000000000000000000000000000000000000000000000000000000008152600401610f9990613005565b60405180910390fd5b3373ffffffffffffffffffffffffffffffffffffffff166108fc82604001519081150290604051600060405180830381858888f19350505050158015610fec573d6000803e3d6000fd5b506110003382600001518360200151611be3565b5b7f76b3900aee1539fba6bc0c92712c2959a1b89602c8a57aebbeff7c52bff1f1eb8233604051611032929190613025565b60405180910390a15050565b3373ffffffffffffffffffffffffffffffffffffffff1661105e85610965565b73ffffffffffffffffffffffffffffffffffffffff16146110b4576040517f08c379a00000000000000000000000000000000000000000000000000000000081526004016110ab906130c0565b60405180910390fd5b4282116110f6576040517f08c379a00000000000000000000000000000000000000000000000000000000081526004016110ed90613152565b60405180910390fd5b600a600081548092919061110990612b31565b91905055506000600a5490506040518060a001604052803373ffffffffffffffffffffffffffffffffffffffff1681526020018681526020018581526020018481526020018315158152506009600083815260200190815260200160002060008201518160000160006101000a81548173ffffffffffffffffffffffffffffffffffffffff021916908373ffffffffffffffffffffffffffffffffffffffff16021790555060208201518160010155604082015181600201556060820151816003015560808201518160040160006101000a81548160ff0219169083151502179055509050507f6793e497c8da7de9b462e8d19d891cc24ef3315e34013a49d671e1d47ae5760f8186868686604051611226959493929190613172565b60405180910390a15050505050565b60007f01ffc9a7000000000000000000000000000000000000000000000000000000007bffffffffffffffffffffffffffffffffffffffffffffffffffffffff1916827bffffffffffffffffffffffffffffffffffffffffffffffffffffffff1916149050919050565b6000806112ab83611d50565b9050600073ffffffffffffffffffffffffffffffffffffffff168173ffffffffffffffffffffffffffffffffffffffff160361131e57826040517f7e2732890000000000000000000000000000000000000000000000000000000081526004016113159190612749565b60405180910390fd5b80915050919050565b60006004600083815260200190815260200160002060009054906101000a900473ffffffffffffffffffffffffffffffffffffffff169050919050565b600033905090565b6113798383836001611d8d565b505050565b60008061138a84611d50565b9050600073ffffffffffffffffffffffffffffffffffffffff168373ffffffffffffffffffffffffffffffffffffffff16146113cc576113cb818486611f52565b5b600073ffffffffffffffffffffffffffffffffffffffff168173ffffffffffffffffffffffffffffffffffffffff161461145d5761140e600085600080611d8d565b6001600360008373ffffffffffffffffffffffffffffffffffffffff1673ffffffffffffffffffffffffffffffffffffffff168152602001908152602001600020600082825403925050819055505b600073ffffffffffffffffffffffffffffffffffffffff168573ffffffffffffffffffffffffffffffffffffffff16146114e0576001600360008773ffffffffffffffffffffffffffffffffffffffff1673ffffffffffffffffffffffffffffffffffffffff168152602001908152602001600020600082825401925050819055505b846002600086815260200190815260200160002060006101000a81548173ffffffffffffffffffffffffffffffffffffffff021916908373ffffffffffffffffffffffffffffffffffffffff160217905550838573ffffffffffffffffffffffffffffffffffffffff168273ffffffffffffffffffffffffffffffffffffffff167fddf252ad1be2c89b69c2b068fc378daa952ba7f163c4a11628f55a4df523b3ef60405160405180910390a4809150509392505050565b600073ffffffffffffffffffffffffffffffffffffffff168273ffffffffffffffffffffffffffffffffffffffff160361160a5760006040517f64a0ae92000000000000000000000000000000000000000000000000000000008152600401611601919061244f565b60405180910390fd5b60006116188383600061137e565b9050600073ffffffffffffffffffffffffffffffffffffffff168173ffffffffffffffffffffffffffffffffffffffff161461168c5760006040517f73c6ac6e000000000000000000000000000000000000000000000000000000008152600401611683919061244f565b60405180910390fd5b505050565b611699611364565b73ffffffffffffffffffffffffffffffffffffffff166116b7610a45565b73ffffffffffffffffffffffffffffffffffffffff1614611716576116da611364565b6040517f118cdaa700000000000000000000000000000000000000000000000000000000815260040161170d919061244f565b60405180910390fd5b565b6000600660009054906101000a900473ffffffffffffffffffffffffffffffffffffffff16905081600660006101000a81548173ffffffffffffffffffffffffffffffffffffffff021916908373ffffffffffffffffffffffffffffffffffffffff1602179055508173ffffffffffffffffffffffffffffffffffffffff168173ffffffffffffffffffffffffffffffffffffffff167f8be0079c531659141344cd1fd0a4f28419497f9722a3daafe3b4186f6b6457e060405160405180910390a35050565b600073ffffffffffffffffffffffffffffffffffffffff168273ffffffffffffffffffffffffffffffffffffffff160361184f57816040517f5b08ba18000000000000000000000000000000000000000000000000000000008152600401611846919061244f565b60405180910390fd5b80600560008573ffffffffffffffffffffffffffffffffffffffff1673ffffffffffffffffffffffffffffffffffffffff16815260200190815260200160002060008473ffffffffffffffffffffffffffffffffffffffff1673ffffffffffffffffffffffffffffffffffffffff16815260200190815260200160002060006101000a81548160ff0219169083151502179055508173ffffffffffffffffffffffffffffffffffffffff168373ffffffffffffffffffffffffffffffffffffffff167f17307eab39ab6107e8899845ad3d59bd9653f200f220920489ca2b5937696c318360405161194091906122de565b60405180910390a3505050565b60008373ffffffffffffffffffffffffffffffffffffffff163b1115611af7578273ffffffffffffffffffffffffffffffffffffffff1663150b7a02868685856040518563ffffffff1660e01b81526004016119ac949392919061321a565b6020604051808303816000875af19250505080156119e857506040513d601f19601f820116820180604052508101906119e5919061327b565b60015b611a6c573d8060008114611a18576040519150601f19603f3d011682016040523d82523d6000602084013e611a1d565b606091505b506000815103611a6457836040517f64a0ae92000000000000000000000000000000000000000000000000000000008152600401611a5b919061244f565b60405180910390fd5b805181602001fd5b63150b7a0260e01b7bffffffffffffffffffffffffffffffffffffffffffffffffffffffff1916817bffffffffffffffffffffffffffffffffffffffffffffffffffffffff191614611af557836040517f64a0ae92000000000000000000000000000000000000000000000000000000008152600401611aec919061244f565b60405180910390fd5b505b5050505050565b606060405180602001604052806000815250905090565b606060006001611b2484612016565b01905060008167ffffffffffffffff811115611b4357611b42612533565b5b6040519080825280601f01601f191660200182016040528015611b755781602001600182028036833780820191505090505b509050600082602001820190505b600115611bd8578080600190039150507f3031323334353637383961626364656600000000000000000000000000000000600a86061a8153600a8581611bcc57611bcb6132a8565b5b04945060008503611b83575b819350505050919050565b600073ffffffffffffffffffffffffffffffffffffffff168273ffffffffffffffffffffffffffffffffffffffff1603611c555760006040517f64a0ae92000000000000000000000000000000000000000000000000000000008152600401611c4c919061244f565b60405180910390fd5b6000611c638383600061137e565b9050600073ffffffffffffffffffffffffffffffffffffffff168173ffffffffffffffffffffffffffffffffffffffff1603611cd657816040517f7e273289000000000000000000000000000000000000000000000000000000008152600401611ccd9190612749565b60405180910390fd5b8373ffffffffffffffffffffffffffffffffffffffff168173ffffffffffffffffffffffffffffffffffffffff1614611d4a578382826040517f64283d7b000000000000000000000000000000000000000000000000000000008152600401611d4193929190612a39565b60405180910390fd5b50505050565b60006002600083815260200190815260200160002060009054906101000a900473ffffffffffffffffffffffffffffffffffffffff169050919050565b8080611dc65750600073ffffffffffffffffffffffffffffffffffffffff168273ffffffffffffffffffffffffffffffffffffffff1614155b15611efa576000611dd68461129f565b9050600073ffffffffffffffffffffffffffffffffffffffff168373ffffffffffffffffffffffffffffffffffffffff1614158015611e4157508273ffffffffffffffffffffffffffffffffffffffff168173ffffffffffffffffffffffffffffffffffffffff1614155b8015611e545750611e528184610c64565b155b15611e9657826040517fa9fbf51f000000000000000000000000000000000000000000000000000000008152600401611e8d919061244f565b60405180910390fd5b8115611ef857838573ffffffffffffffffffffffffffffffffffffffff168273ffffffffffffffffffffffffffffffffffffffff167f8c5be1e5ebec7d5bd14f71427d1e84f3dd0314c0f7b2291e5b200ac8c7c3b92560405160405180910390a45b505b836004600085815260200190815260200160002060006101000a81548173ffffffffffffffffffffffffffffffffffffffff021916908373ffffffffffffffffffffffffffffffffffffffff16021790555050505050565b611f5d838383612169565b61201157600073ffffffffffffffffffffffffffffffffffffffff168373ffffffffffffffffffffffffffffffffffffffff1603611fd257806040517f7e273289000000000000000000000000000000000000000000000000000000008152600401611fc99190612749565b60405180910390fd5b81816040517f177e802f0000000000000000000000000000000000000000000000000000000081526004016120089291906132d7565b60405180910390fd5b505050565b600080600090507a184f03e93ff9f4daa797ed6e38ed64bf6a1f0100000000000000008310612074577a184f03e93ff9f4daa797ed6e38ed64bf6a1f010000000000000000838161206a576120696132a8565b5b0492506040810190505b6d04ee2d6d415b85acef810000000083106120b1576d04ee2d6d415b85acef810000000083816120a7576120a66132a8565b5b0492506020810190505b662386f26fc1000083106120e057662386f26fc1000083816120d6576120d56132a8565b5b0492506010810190505b6305f5e1008310612109576305f5e10083816120ff576120fe6132a8565b5b0492506008810190505b612710831061212e576127108381612124576121236132a8565b5b0492506004810190505b606483106121515760648381612147576121466132a8565b5b0492506002810190505b600a8310612160576001810190505b80915050919050565b60008073ffffffffffffffffffffffffffffffffffffffff168373ffffffffffffffffffffffffffffffffffffffff161415801561222157508273ffffffffffffffffffffffffffffffffffffffff168473ffffffffffffffffffffffffffffffffffffffff1614806121e257506121e18484610c64565b5b8061222057508273ffffffffffffffffffffffffffffffffffffffff1661220883611327565b73ffffffffffffffffffffffffffffffffffffffff16145b5b90509392505050565b6000604051905090565b600080fd5b600080fd5b60007fffffffff0000000000000000000000000000000000000000000000000000000082169050919050565b6122738161223e565b811461227e57600080fd5b50565b6000813590506122908161226a565b92915050565b6000602082840312156122ac576122ab612234565b5b60006122ba84828501612281565b91505092915050565b60008115159050919050565b6122d8816122c3565b82525050565b60006020820190506122f360008301846122cf565b92915050565b600081519050919050565b600082825260208201905092915050565b60005b83811015612333578082015181840152602081019050612318565b60008484015250505050565b6000601f19601f8301169050919050565b600061235b826122f9565b6123658185612304565b9350612375818560208601612315565b61237e8161233f565b840191505092915050565b600060208201905081810360008301526123a38184612350565b905092915050565b6000819050919050565b6123be816123ab565b81146123c957600080fd5b50565b6000813590506123db816123b5565b92915050565b6000602082840312156123f7576123f6612234565b5b6000612405848285016123cc565b91505092915050565b600073ffffffffffffffffffffffffffffffffffffffff82169050919050565b60006124398261240e565b9050919050565b6124498161242e565b82525050565b60006020820190506124646000830184612440565b92915050565b6124738161242e565b811461247e57600080fd5b50565b6000813590506124908161246a565b92915050565b600080604083850312156124ad576124ac612234565b5b60006124bb85828601612481565b92505060206124cc858286016123cc565b9150509250929050565b6000806000606084860312156124ef576124ee612234565b5b60006124fd86828701612481565b935050602061250e86828701612481565b925050604061251f868287016123cc565b9150509250925092565b600080fd5b600080fd5b7f4e487b7100000000000000000000000000000000000000000000000000000000600052604160045260246000fd5b61256b8261233f565b810181811067ffffffffffffffff8211171561258a57612589612533565b5b80604052505050565b600061259d61222a565b90506125a98282612562565b919050565b600067ffffffffffffffff8211156125c9576125c8612533565b5b6125d28261233f565b9050602081019050919050565b82818337600083830152505050565b60006126016125fc846125ae565b612593565b90508281526020810184848401111561261d5761261c61252e565b5b6126288482856125df565b509392505050565b600082601f83011261264557612644612529565b5b81356126558482602086016125ee565b91505092915050565b6000806040838503121561267557612674612234565b5b600083013567ffffffffffffffff81111561269357612692612239565b5b61269f85828601612630565b92505060206126b0858286016123cc565b9150509250929050565b6126c3816123ab565b82525050565b600060a0820190506126de6000830188612440565b6126eb60208301876126ba565b6126f860408301866126ba565b61270560608301856126ba565b61271260808301846122cf565b9695505050505050565b60006020828403121561273257612731612234565b5b600061274084828501612481565b91505092915050565b600060208201905061275e60008301846126ba565b92915050565b61276d816122c3565b811461277857600080fd5b50565b60008135905061278a81612764565b92915050565b600080604083850312156127a7576127a6612234565b5b60006127b585828601612481565b92505060206127c68582860161277b565b9150509250929050565b600067ffffffffffffffff8211156127eb576127ea612533565b5b6127f48261233f565b9050602081019050919050565b600061281461280f846127d0565b612593565b9050828152602081018484840111156128305761282f61252e565b5b61283b8482856125df565b509392505050565b600082601f83011261285857612857612529565b5b8135612868848260208601612801565b91505092915050565b6000806000806080858703121561288b5761288a612234565b5b600061289987828801612481565b94505060206128aa87828801612481565b93505060406128bb878288016123cc565b925050606085013567ffffffffffffffff8111156128dc576128db612239565b5b6128e887828801612843565b91505092959194509250565b6000606082019050818103600083015261290e8186612350565b905061291d60208301856126ba565b61292a60408301846122cf565b949350505050565b6000806040838503121561294957612948612234565b5b600061295785828601612481565b925050602061296885828601612481565b9150509250929050565b6000806000806080858703121561298c5761298b612234565b5b600061299a878288016123cc565b94505060206129ab878288016123cc565b93505060406129bc878288016123cc565b92505060606129cd8782880161277b565b91505092959194509250565b7f4e487b7100000000000000000000000000000000000000000000000000000000600052602260045260246000fd5b60006002820490506001821680612a2057607f821691505b602082108103612a3357612a326129d9565b5b50919050565b6000606082019050612a4e6000830186612440565b612a5b60208301856126ba565b612a686040830184612440565b949350505050565b7f566964656f206d757374206265206174206c656173742032206d696e7574657360008201527f206c6f6e67000000000000000000000000000000000000000000000000000000602082015250565b6000612acc602583612304565b9150612ad782612a70565b604082019050919050565b60006020820190508181036000830152612afb81612abf565b9050919050565b7f4e487b7100000000000000000000000000000000000000000000000000000000600052601160045260246000fd5b6000612b3c826123ab565b91507fffffffffffffffffffffffffffffffffffffffffffffffffffffffffffffffff8203612b6e57612b6d612b02565b5b600182019050919050565b60008190508160005260206000209050919050565b60006020601f8301049050919050565b600082821b905092915050565b600060088302612bdb7fffffffffffffffffffffffffffffffffffffffffffffffffffffffffffffffff82612b9e565b612be58683612b9e565b95508019841693508086168417925050509392505050565b6000819050919050565b6000612c22612c1d612c18846123ab565b612bfd565b6123ab565b9050919050565b6000819050919050565b612c3c83612c07565b612c50612c4882612c29565b848454612bab565b825550505050565b600090565b612c65612c58565b612c70818484612c33565b505050565b5b81811015612c9457612c89600082612c5d565b600181019050612c76565b5050565b601f821115612cd957612caa81612b79565b612cb384612b8e565b81016020851015612cc2578190505b612cd6612cce85612b8e565b830182612c75565b50505b505050565b600082821c905092915050565b6000612cfc60001984600802612cde565b1980831691505092915050565b6000612d158383612ceb565b9150826002028217905092915050565b612d2e826122f9565b67ffffffffffffffff811115612d4757612d46612533565b5b612d518254612a08565b612d5c828285612c98565b600060209050601f831160018114612d8f5760008415612d7d578287015190505b612d878582612d09565b865550612def565b601f198416612d9d86612b79565b60005b82811015612dc557848901518255600182019150602085019450602081019050612da0565b86831015612de25784890151612dde601f891682612ceb565b8355505b6001600288020188555050505b505050505050565b6000606082019050612e0c60008301866126ba565b8181036020830152612e1e8185612350565b9050612e2d60408301846126ba565b949350505050565b600081905092915050565b6000612e4b826122f9565b612e558185612e35565b9350612e65818560208601612315565b80840191505092915050565b6000612e7d8285612e40565b9150612e898284612e40565b91508190509392505050565b7f4f7074696f6e2068617320657870697265640000000000000000000000000000600082015250565b6000612ecb601283612304565b9150612ed682612e95565b602082019050919050565b60006020820190508181036000830152612efa81612ebe565b9050919050565b7f496e636f72726563742045544820616d6f756e7420666f72206578657263697360008201527f696e67207468652063616c6c206f7074696f6e00000000000000000000000000602082015250565b6000612f5d603383612304565b9150612f6882612f01565b604082019050919050565b60006020820190508181036000830152612f8c81612f50565b9050919050565b7f4f6e6c7920746865204e4654206f776e65722063616e2065786572636973652060008201527f74686520707574206f7074696f6e000000000000000000000000000000000000602082015250565b6000612fef602e83612304565b9150612ffa82612f93565b604082019050919050565b6000602082019050818103600083015261301e81612fe2565b9050919050565b600060408201905061303a60008301856126ba565b6130476020830184612440565b9392505050565b7f4f6e6c7920746865204e4654206f776e65722063616e20637265617465206f7060008201527f74696f6e73000000000000000000000000000000000000000000000000000000602082015250565b60006130aa602583612304565b91506130b58261304e565b604082019050919050565b600060208201905081810360008301526130d98161309d565b9050919050565b7f45787069726174696f6e2064617465206d75737420626520696e20746865206660008201527f7574757265000000000000000000000000000000000000000000000000000000602082015250565b600061313c602583612304565b9150613147826130e0565b604082019050919050565b6000602082019050818103600083015261316b8161312f565b9050919050565b600060a08201905061318760008301886126ba565b61319460208301876126ba565b6131a160408301866126ba565b6131ae60608301856126ba565b6131bb60808301846122cf565b9695505050505050565b600081519050919050565b600082825260208201905092915050565b60006131ec826131c5565b6131f681856131d0565b9350613206818560208601612315565b61320f8161233f565b840191505092915050565b600060808201905061322f6000830187612440565b61323c6020830186612440565b61324960408301856126ba565b818103606083015261325b81846131e1565b905095945050505050565b6000815190506132758161226a565b92915050565b60006020828403121561329157613290612234565b5b600061329f84828501613266565b91505092915050565b7f4e487b7100000000000000000000000000000000000000000000000000000000600052601260045260246000fd5b60006040820190506132ec6000830185612440565b6132f960208301846126ba565b939250505056fea26469706673582212206eeb1a8659d923bd900aa3034b4cbae08cc165d5519861da97f6b38b80e737ab64736f6c63430008180033",
  "linkReferences": {},
  "deployedLinkReferences": {}
}